{
    "contractName": "MyToken",
    "abi": [
        {
            "inputs": [],
            "stateMutability": "nonpayable",
            "type": "constructor"
        },
        {
            "inputs": [
                {
                    "internalType": "address",
                    "name": "",
                    "type": "address"
                }
            ],
            "name": "balances",
            "outputs": [
                {
                    "internalType": "uint256",
                    "name": "",
                    "type": "uint256"
                }
            ],
            "stateMutability": "view",
            "type": "function"
        },
        {
            "inputs": [],
            "name": "getBalance",
            "outputs": [
                {
                    "internalType": "uint256",
                    "name": "",
                    "type": "uint256"
                }
            ],
            "stateMutability": "view",
            "type": "function"
        },
        {
            "inputs": [
                {
                    "internalType": "uint256",
                    "name": "amount",
                    "type": "uint256"
                },
                {
                    "internalType": "address",
                    "name": "recipient",
                    "type": "address"
                }
            ],
            "name": "transfer",
            "outputs": [],
            "stateMutability": "nonpayable",
            "type": "function"
        }
    ],
    "bytecode": "608060405234801561001057600080fd5b50600080546001600160a01b03191633908117825581526001602052604090206103e890556101f4806100446000396000f3fe608060405234801561001057600080fd5b50600436106100415760003560e01c806312065fe01461004657806327e235e314610069578063b7760c8f14610089575b600080fd5b336000908152600160205260409020545b60405190815260200160405180910390f35b61005761007736600461012b565b60016020526000908152604090205481565b61009c61009736600461014d565b61009e565b005b336000908152600160205260409020548211156100ba57600080fd5b33600090815260016020526040812080548492906100d990849061018f565b90915550506001600160a01b038116600090815260016020526040812080548492906101069084906101a6565b90915550505050565b80356001600160a01b038116811461012657600080fd5b919050565b60006020828403121561013d57600080fd5b6101468261010f565b9392505050565b6000806040838503121561016057600080fd5b823591506101706020840161010f565b90509250929050565b634e487b7160e01b600052601160045260246000fd5b6000828210156101a1576101a1610179565b500390565b600082198211156101b9576101b9610179565b50019056fea2646970667358221220382dff79813829af6a55594446db09f39de6f6a3b5667ec9b1560a41e27023c964736f6c634300080b0033",
    "sourcePath": "/Users/patrickrutherford/Documents/projects/myFirstToken/MyToken.sol",
    "compiler": {
        "name": "solc",
        "version": "0.8.11+commit.d7f03943"
    },
    "functionHashes": {
        "balances(address)": "27e235e3",
        "getBalance()": "12065fe0",
        "transfer(uint256,address)": "b7760c8f"
    },
    "gasEstimates": {
        "creation": {
            "codeDepositCost": "100000",
            "executionCost": "46557",
            "totalCost": "146557"
        },
        "external": {
            "balances(address)": "2507",
            "getBalance()": "2315",
            "transfer(uint256,address)": "51296"
        }
    }
}